{
  "_format": "hh-sol-artifact-1",
  "contractName": "MyEpicNFT",
  "sourceName": "contracts/MyEpicNFT.sol",
  "abi": [
    {
      "inputs": [],
      "stateMutability": "nonpayable",
      "type": "constructor"
    },
    {
      "anonymous": false,
      "inputs": [
        {
          "indexed": true,
          "internalType": "address",
          "name": "owner",
          "type": "address"
        },
        {
          "indexed": true,
          "internalType": "address",
          "name": "approved",
          "type": "address"
        },
        {
          "indexed": true,
          "internalType": "uint256",
          "name": "tokenId",
          "type": "uint256"
        }
      ],
      "name": "Approval",
      "type": "event"
    },
    {
      "anonymous": false,
      "inputs": [
        {
          "indexed": true,
          "internalType": "address",
          "name": "owner",
          "type": "address"
        },
        {
          "indexed": true,
          "internalType": "address",
          "name": "operator",
          "type": "address"
        },
        {
          "indexed": false,
          "internalType": "bool",
          "name": "approved",
          "type": "bool"
        }
      ],
      "name": "ApprovalForAll",
      "type": "event"
    },
    {
      "anonymous": false,
      "inputs": [
        {
          "indexed": false,
          "internalType": "address",
          "name": "sender",
          "type": "address"
        },
        {
          "indexed": false,
          "internalType": "uint256",
          "name": "tokenId",
          "type": "uint256"
        }
      ],
      "name": "NewEpicNFTMinted",
      "type": "event"
    },
    {
      "anonymous": false,
      "inputs": [
        {
          "indexed": true,
          "internalType": "address",
          "name": "from",
          "type": "address"
        },
        {
          "indexed": true,
          "internalType": "address",
          "name": "to",
          "type": "address"
        },
        {
          "indexed": true,
          "internalType": "uint256",
          "name": "tokenId",
          "type": "uint256"
        }
      ],
      "name": "Transfer",
      "type": "event"
    },
    {
      "inputs": [
        {
          "internalType": "address",
          "name": "to",
          "type": "address"
        },
        {
          "internalType": "uint256",
          "name": "tokenId",
          "type": "uint256"
        }
      ],
      "name": "approve",
      "outputs": [],
      "stateMutability": "nonpayable",
      "type": "function"
    },
    {
      "inputs": [
        {
          "internalType": "address",
          "name": "owner",
          "type": "address"
        }
      ],
      "name": "balanceOf",
      "outputs": [
        {
          "internalType": "uint256",
          "name": "",
          "type": "uint256"
        }
      ],
      "stateMutability": "view",
      "type": "function"
    },
    {
      "inputs": [
        {
          "internalType": "uint256",
          "name": "tokenId",
          "type": "uint256"
        }
      ],
      "name": "getApproved",
      "outputs": [
        {
          "internalType": "address",
          "name": "",
          "type": "address"
        }
      ],
      "stateMutability": "view",
      "type": "function"
    },
    {
      "inputs": [],
      "name": "getTotalNFTsMintedSoFar",
      "outputs": [
        {
          "components": [
            {
              "internalType": "uint256",
              "name": "_value",
              "type": "uint256"
            }
          ],
          "internalType": "struct Counters.Counter",
          "name": "",
          "type": "tuple"
        }
      ],
      "stateMutability": "view",
      "type": "function"
    },
    {
      "inputs": [
        {
          "internalType": "address",
          "name": "owner",
          "type": "address"
        },
        {
          "internalType": "address",
          "name": "operator",
          "type": "address"
        }
      ],
      "name": "isApprovedForAll",
      "outputs": [
        {
          "internalType": "bool",
          "name": "",
          "type": "bool"
        }
      ],
      "stateMutability": "view",
      "type": "function"
    },
    {
      "inputs": [],
      "name": "makeAnEpicNFT",
      "outputs": [],
      "stateMutability": "nonpayable",
      "type": "function"
    },
    {
      "inputs": [],
      "name": "name",
      "outputs": [
        {
          "internalType": "string",
          "name": "",
          "type": "string"
        }
      ],
      "stateMutability": "view",
      "type": "function"
    },
    {
      "inputs": [
        {
          "internalType": "uint256",
          "name": "tokenId",
          "type": "uint256"
        }
      ],
      "name": "ownerOf",
      "outputs": [
        {
          "internalType": "address",
          "name": "",
          "type": "address"
        }
      ],
      "stateMutability": "view",
      "type": "function"
    },
    {
      "inputs": [
        {
          "internalType": "uint256",
          "name": "tokenId",
          "type": "uint256"
        }
      ],
      "name": "pickRandomFirstWord",
      "outputs": [
        {
          "internalType": "string",
          "name": "",
          "type": "string"
        }
      ],
      "stateMutability": "view",
      "type": "function"
    },
    {
      "inputs": [
        {
          "internalType": "uint256",
          "name": "tokenId",
          "type": "uint256"
        }
      ],
      "name": "pickRandomSecondWord",
      "outputs": [
        {
          "internalType": "string",
          "name": "",
          "type": "string"
        }
      ],
      "stateMutability": "view",
      "type": "function"
    },
    {
      "inputs": [
        {
          "internalType": "uint256",
          "name": "tokenId",
          "type": "uint256"
        }
      ],
      "name": "pickRandomThirdWord",
      "outputs": [
        {
          "internalType": "string",
          "name": "",
          "type": "string"
        }
      ],
      "stateMutability": "view",
      "type": "function"
    },
    {
      "inputs": [
        {
          "internalType": "address",
          "name": "from",
          "type": "address"
        },
        {
          "internalType": "address",
          "name": "to",
          "type": "address"
        },
        {
          "internalType": "uint256",
          "name": "tokenId",
          "type": "uint256"
        }
      ],
      "name": "safeTransferFrom",
      "outputs": [],
      "stateMutability": "nonpayable",
      "type": "function"
    },
    {
      "inputs": [
        {
          "internalType": "address",
          "name": "from",
          "type": "address"
        },
        {
          "internalType": "address",
          "name": "to",
          "type": "address"
        },
        {
          "internalType": "uint256",
          "name": "tokenId",
          "type": "uint256"
        },
        {
          "internalType": "bytes",
          "name": "data",
          "type": "bytes"
        }
      ],
      "name": "safeTransferFrom",
      "outputs": [],
      "stateMutability": "nonpayable",
      "type": "function"
    },
    {
      "inputs": [
        {
          "internalType": "address",
          "name": "operator",
          "type": "address"
        },
        {
          "internalType": "bool",
          "name": "approved",
          "type": "bool"
        }
      ],
      "name": "setApprovalForAll",
      "outputs": [],
      "stateMutability": "nonpayable",
      "type": "function"
    },
    {
      "inputs": [
        {
          "internalType": "bytes4",
          "name": "interfaceId",
          "type": "bytes4"
        }
      ],
      "name": "supportsInterface",
      "outputs": [
        {
          "internalType": "bool",
          "name": "",
          "type": "bool"
        }
      ],
      "stateMutability": "view",
      "type": "function"
    },
    {
      "inputs": [],
      "name": "symbol",
      "outputs": [
        {
          "internalType": "string",
          "name": "",
          "type": "string"
        }
      ],
      "stateMutability": "view",
      "type": "function"
    },
    {
      "inputs": [
        {
          "internalType": "uint256",
          "name": "tokenId",
          "type": "uint256"
        }
      ],
      "name": "tokenURI",
      "outputs": [
        {
          "internalType": "string",
          "name": "",
          "type": "string"
        }
      ],
      "stateMutability": "view",
      "type": "function"
    },
    {
      "inputs": [],
      "name": "totalSupply",
      "outputs": [
        {
          "internalType": "uint256",
          "name": "",
          "type": "uint256"
        }
      ],
      "stateMutability": "view",
      "type": "function"
    },
    {
      "inputs": [
        {
          "internalType": "address",
          "name": "from",
          "type": "address"
        },
        {
          "internalType": "address",
          "name": "to",
          "type": "address"
        },
        {
          "internalType": "uint256",
          "name": "tokenId",
          "type": "uint256"
        }
      ],
      "name": "transferFrom",
      "outputs": [],
      "stateMutability": "nonpayable",
      "type": "function"
    }
  ],
  "bytecode": "0x6080604052604051806102e001604052806102b68152602001620047076102b6913960089081620000319190620009d0565b506040518060c001604052806040518060400160405280600981526020017f48616d627572676572000000000000000000000000000000000000000000000081525081526020016040518060400160405280600681526020017f426174617461000000000000000000000000000000000000000000000000000081525081526020016040518060400160405280600581526020017f507564696d00000000000000000000000000000000000000000000000000000081525081526020016040518060400160405280600981526020017f43686f636f6c617465000000000000000000000000000000000000000000000081525081526020016040518060400160405280600a81526020017f43686565736563616b650000000000000000000000000000000000000000000081525081526020016040518060400160405280600781526020017f536f7276657465000000000000000000000000000000000000000000000000008152508152506009906006620001af92919062000669565b506040518060c001604052806040518060400160405280600781526020017f4b756e672d66750000000000000000000000000000000000000000000000000081525081526020016040518060400160405280600881526020017f4b656e6a7574737500000000000000000000000000000000000000000000000081525081526020016040518060400160405280600981526020017f5461656b776f6e646f000000000000000000000000000000000000000000000081525081526020016040518060400160405280600881526020017f4a69756a6974737500000000000000000000000000000000000000000000000081525081526020016040518060400160405280600681526020017f4b6172617465000000000000000000000000000000000000000000000000000081525081526020016040518060400160405280600481526020017f4a75646f00000000000000000000000000000000000000000000000000000000815250815250600a9060066200032d92919062000669565b506040518060c001604052806040518060400160405280600681526020017f42726173696c000000000000000000000000000000000000000000000000000081525081526020016040518060400160405280600881526020017f416c656d616e686100000000000000000000000000000000000000000000000081525081526020016040518060400160405280600681526020017f4672616e6361000000000000000000000000000000000000000000000000000081525081526020016040518060400160405280600a81526020017f456e676c6174657272610000000000000000000000000000000000000000000081525081526020016040518060400160405280600681526020017f43616e616461000000000000000000000000000000000000000000000000000081525081526020016040518060400160405280600681526020017f4772656369610000000000000000000000000000000000000000000000000000815250815250600b906006620004ab92919062000669565b50348015620004b957600080fd5b506040518060400160405280600981526020017f4368617665734e465400000000000000000000000000000000000000000000008152506040518060400160405280600581526020017f434841564f0000000000000000000000000000000000000000000000000000008152508160009081620005379190620009d0565b508060019081620005499190620009d0565b505050620005976040518060400160405280601c81526020017f4d657520636f6e747261746f206465204e46542120546368752d6875000000008152506200059d60201b620010661760201c565b62000b6a565b6200063d81604051602401620005b4919062000b46565b6040516020818303038152906040527f41304fac000000000000000000000000000000000000000000000000000000007bffffffffffffffffffffffffffffffffffffffffffffffffffffffff19166020820180517bffffffffffffffffffffffffffffffffffffffffffffffffffffffff83818316178352505050506200064060201b60201c565b50565b60008151905060006a636f6e736f6c652e6c6f679050602083016000808483855afa5050505050565b828054828255906000526020600020908101928215620006b6579160200282015b82811115620006b5578251829081620006a49190620009d0565b50916020019190600101906200068a565b5b509050620006c59190620006c9565b5090565b5b80821115620006ed5760008181620006e39190620006f1565b50600101620006ca565b5090565b508054620006ff90620007bf565b6000825580601f1062000713575062000734565b601f01602090049060005260206000209081019062000733919062000737565b5b50565b5b808211156200075257600081600090555060010162000738565b5090565b600081519050919050565b7f4e487b7100000000000000000000000000000000000000000000000000000000600052604160045260246000fd5b7f4e487b7100000000000000000000000000000000000000000000000000000000600052602260045260246000fd5b60006002820490506001821680620007d857607f821691505b602082108103620007ee57620007ed62000790565b5b50919050565b60008190508160005260206000209050919050565b60006020601f8301049050919050565b600082821b905092915050565b600060088302620008587fffffffffffffffffffffffffffffffffffffffffffffffffffffffffffffffff8262000819565b62000864868362000819565b95508019841693508086168417925050509392505050565b6000819050919050565b6000819050919050565b6000620008b1620008ab620008a5846200087c565b62000886565b6200087c565b9050919050565b6000819050919050565b620008cd8362000890565b620008e5620008dc82620008b8565b84845462000826565b825550505050565b600090565b620008fc620008ed565b62000909818484620008c2565b505050565b5b81811015620009315762000925600082620008f2565b6001810190506200090f565b5050565b601f82111562000980576200094a81620007f4565b620009558462000809565b8101602085101562000965578190505b6200097d620009748562000809565b8301826200090e565b50505b505050565b600082821c905092915050565b6000620009a56000198460080262000985565b1980831691505092915050565b6000620009c0838362000992565b9150826002028217905092915050565b620009db8262000756565b67ffffffffffffffff811115620009f757620009f662000761565b5b62000a038254620007bf565b62000a1082828562000935565b600060209050601f83116001811462000a48576000841562000a33578287015190505b62000a3f8582620009b2565b86555062000aaf565b601f19841662000a5886620007f4565b60005b8281101562000a825784890151825560018201915060208501945060208101905062000a5b565b8683101562000aa2578489015162000a9e601f89168262000992565b8355505b6001600288020188555050505b505050505050565b600082825260208201905092915050565b60005b8381101562000ae857808201518184015260208101905062000acb565b60008484015250505050565b6000601f19601f8301169050919050565b600062000b128262000756565b62000b1e818562000ab7565b935062000b3081856020860162000ac8565b62000b3b8162000af4565b840191505092915050565b6000602082019050818103600083015262000b62818462000b05565b905092915050565b613b8d8062000b7a6000396000f3fe608060405234801561001057600080fd5b50600436106101215760003560e01c80636352211e116100ad578063b88d4fde11610071578063b88d4fde1461032e578063c575757a1461034a578063c87b56dd1461037a578063de9d132f146103aa578063e985e9c5146103b457610121565b80636352211e1461026457806370a082311461029457806395d89b41146102c4578063a22cb465146102e2578063b187301f146102fe57610121565b8063095ea7b3116100f4578063095ea7b3146101c257806318160ddd146101de57806323b872dd146101fc5780632de38d681461021857806342842e0e1461024857610121565b806301ffc9a714610126578063060475901461015657806306fdde0314610174578063081812fc14610192575b600080fd5b610140600480360381019061013b91906123f7565b6103e4565b60405161014d919061243f565b60405180910390f35b61015e6104c6565b60405161016b919061248f565b60405180910390f35b61017c6104ea565b604051610189919061253a565b60405180910390f35b6101ac60048036038101906101a79190612588565b61057c565b6040516101b991906125f6565b60405180910390f35b6101dc60048036038101906101d7919061263d565b6105c2565b005b6101e66106d9565b6040516101f3919061268c565b60405180910390f35b610216600480360381019061021191906126a7565b6106de565b005b610232600480360381019061022d9190612588565b61073e565b60405161023f919061253a565b60405180910390f35b610262600480360381019061025d91906126a7565b610836565b005b61027e60048036038101906102799190612588565b610856565b60405161028b91906125f6565b60405180910390f35b6102ae60048036038101906102a991906126fa565b6108dc565b6040516102bb919061268c565b60405180910390f35b6102cc610993565b6040516102d9919061253a565b60405180910390f35b6102fc60048036038101906102f79190612753565b610a25565b005b61031860048036038101906103139190612588565b610a3b565b604051610325919061253a565b60405180910390f35b610348600480360381019061034391906128c8565b610b33565b005b610364600480360381019061035f9190612588565b610b95565b604051610371919061253a565b60405180910390f35b610394600480360381019061038f9190612588565b610c8d565b6040516103a1919061253a565b60405180910390f35b6103b2610d9f565b005b6103ce60048036038101906103c9919061294b565b610fd2565b6040516103db919061243f565b60405180910390f35b60007f80ac58cd000000000000000000000000000000000000000000000000000000007bffffffffffffffffffffffffffffffffffffffffffffffffffffffff1916827bffffffffffffffffffffffffffffffffffffffffffffffffffffffff191614806104af57507f5b5e139f000000000000000000000000000000000000000000000000000000007bffffffffffffffffffffffffffffffffffffffffffffffffffffffff1916827bffffffffffffffffffffffffffffffffffffffffffffffffffffffff1916145b806104bf57506104be826110ff565b5b9050919050565b6104ce612378565b6007604051806020016040529081600082015481525050905090565b6060600080546104f9906129ba565b80601f0160208091040260200160405190810160405280929190818152602001828054610525906129ba565b80156105725780601f1061054757610100808354040283529160200191610572565b820191906000526020600020905b81548152906001019060200180831161055557829003601f168201915b5050505050905090565b600061058782611169565b6004600083815260200190815260200160002060009054906101000a900473ffffffffffffffffffffffffffffffffffffffff169050919050565b60006105cd82610856565b90508073ffffffffffffffffffffffffffffffffffffffff168373ffffffffffffffffffffffffffffffffffffffff160361063d576040517f08c379a000000000000000000000000000000000000000000000000000000000815260040161063490612a5d565b60405180910390fd5b8073ffffffffffffffffffffffffffffffffffffffff1661065c6111b4565b73ffffffffffffffffffffffffffffffffffffffff16148061068b575061068a816106856111b4565b610fd2565b5b6106ca576040517f08c379a00000000000000000000000000000000000000000000000000000000081526004016106c190612aef565b60405180910390fd5b6106d483836111bc565b505050565b603281565b6106ef6106e96111b4565b82611275565b61072e576040517f08c379a000000000000000000000000000000000000000000000000000000000815260040161072590612b81565b60405180910390fd5b61073983838361130a565b505050565b6060600061077261074e84611603565b60405160200161075e9190612c29565b6040516020818303038152906040526116d1565b9050600980549050816107859190612c7a565b90506009818154811061079b5761079a612cab565b5b9060005260206000200180546107b0906129ba565b80601f01602080910402602001604051908101604052809291908181526020018280546107dc906129ba565b80156108295780601f106107fe57610100808354040283529160200191610829565b820191906000526020600020905b81548152906001019060200180831161080c57829003601f168201915b5050505050915050919050565b61085183838360405180602001604052806000815250610b33565b505050565b60008061086283611704565b9050600073ffffffffffffffffffffffffffffffffffffffff168173ffffffffffffffffffffffffffffffffffffffff16036108d3576040517f08c379a00000000000000000000000000000000000000000000000000000000081526004016108ca90612d26565b60405180910390fd5b80915050919050565b60008073ffffffffffffffffffffffffffffffffffffffff168273ffffffffffffffffffffffffffffffffffffffff160361094c576040517f08c379a000000000000000000000000000000000000000000000000000000000815260040161094390612db8565b60405180910390fd5b600360008373ffffffffffffffffffffffffffffffffffffffff1673ffffffffffffffffffffffffffffffffffffffff168152602001908152602001600020549050919050565b6060600180546109a2906129ba565b80601f01602080910402602001604051908101604052809291908181526020018280546109ce906129ba565b8015610a1b5780601f106109f057610100808354040283529160200191610a1b565b820191906000526020600020905b8154815290600101906020018083116109fe57829003601f168201915b5050505050905090565b610a37610a306111b4565b8383611741565b5050565b60606000610a6f610a4b84611603565b604051602001610a5b9190612e24565b6040516020818303038152906040526116d1565b9050600a8054905081610a829190612c7a565b9050600a8181548110610a9857610a97612cab565b5b906000526020600020018054610aad906129ba565b80601f0160208091040260200160405190810160405280929190818152602001828054610ad9906129ba565b8015610b265780601f10610afb57610100808354040283529160200191610b26565b820191906000526020600020905b815481529060010190602001808311610b0957829003601f168201915b5050505050915050919050565b610b44610b3e6111b4565b83611275565b610b83576040517f08c379a0000000000000000000000000000000000000000000000000000000008152600401610b7a90612b81565b60405180910390fd5b610b8f848484846118ad565b50505050565b60606000610bc9610ba584611603565b604051602001610bb59190612e92565b6040516020818303038152906040526116d1565b9050600b8054905081610bdc9190612c7a565b9050600b8181548110610bf257610bf1612cab565b5b906000526020600020018054610c07906129ba565b80601f0160208091040260200160405190810160405280929190818152602001828054610c33906129ba565b8015610c805780601f10610c5557610100808354040283529160200191610c80565b820191906000526020600020905b815481529060010190602001808311610c6357829003601f168201915b5050505050915050919050565b6060610c9882611169565b6000600660008481526020019081526020016000208054610cb8906129ba565b80601f0160208091040260200160405190810160405280929190818152602001828054610ce4906129ba565b8015610d315780601f10610d0657610100808354040283529160200191610d31565b820191906000526020600020905b815481529060010190602001808311610d1457829003601f168201915b505050505090506000610d42611909565b90506000815103610d57578192505050610d9a565b600082511115610d8c578082604051602001610d74929190612eb4565b60405160208183030381529060405292505050610d9a565b610d9584611920565b925050505b919050565b6032610dab6007611988565b10610deb576040517f08c379a0000000000000000000000000000000000000000000000000000000008152600401610de290612f24565b60405180910390fd5b6000610df76007611988565b90506000610e048261073e565b90506000610e1183610a3b565b90506000610e1e84610b95565b90506000838383604051602001610e3793929190612f44565b60405160208183030381529060405290506000600882604051602001610e5e929190613059565b60405160208183030381529060405290506000610ea383610e7e84611996565b604051602001610e8f9291906131de565b604051602081830303815290604052611996565b9050600081604051602001610eb8919061326f565b6040516020818303038152906040529050610f076040518060400160405280601581526020017f0a2d2d2d2d2d2d2d2d2d2d2d2d2d2d2d2d2d2d2d2d0000000000000000000000815250611066565b610f1081611066565b610f4e6040518060400160405280601581526020017f2d2d2d2d2d2d2d2d2d2d2d2d2d2d2d2d2d2d2d2d0a0000000000000000000000815250611066565b610f583389611b2d565b610f628882611b4b565b610f6c6007611bb8565b610f8f604051806060016040528060268152602001613b32602691398933611bce565b7febb98688741ffa4c7589bf325de30cf7becb63de567842e1ccdb6cb949fdc82c3389604051610fc0929190613291565b60405180910390a15050505050505050565b6000600560008473ffffffffffffffffffffffffffffffffffffffff1673ffffffffffffffffffffffffffffffffffffffff16815260200190815260200160002060008373ffffffffffffffffffffffffffffffffffffffff1673ffffffffffffffffffffffffffffffffffffffff16815260200190815260200160002060009054906101000a900460ff16905092915050565b6110fc8160405160240161107a919061253a565b6040516020818303038152906040527f41304fac000000000000000000000000000000000000000000000000000000007bffffffffffffffffffffffffffffffffffffffffffffffffffffffff19166020820180517bffffffffffffffffffffffffffffffffffffffffffffffffffffffff8381831617835250505050611c6d565b50565b60007f01ffc9a7000000000000000000000000000000000000000000000000000000007bffffffffffffffffffffffffffffffffffffffffffffffffffffffff1916827bffffffffffffffffffffffffffffffffffffffffffffffffffffffff1916149050919050565b61117281611c96565b6111b1576040517f08c379a00000000000000000000000000000000000000000000000000000000081526004016111a890612d26565b60405180910390fd5b50565b600033905090565b816004600083815260200190815260200160002060006101000a81548173ffffffffffffffffffffffffffffffffffffffff021916908373ffffffffffffffffffffffffffffffffffffffff160217905550808273ffffffffffffffffffffffffffffffffffffffff1661122f83610856565b73ffffffffffffffffffffffffffffffffffffffff167f8c5be1e5ebec7d5bd14f71427d1e84f3dd0314c0f7b2291e5b200ac8c7c3b92560405160405180910390a45050565b60008061128183610856565b90508073ffffffffffffffffffffffffffffffffffffffff168473ffffffffffffffffffffffffffffffffffffffff1614806112c357506112c28185610fd2565b5b8061130157508373ffffffffffffffffffffffffffffffffffffffff166112e98461057c565b73ffffffffffffffffffffffffffffffffffffffff16145b91505092915050565b8273ffffffffffffffffffffffffffffffffffffffff1661132a82610856565b73ffffffffffffffffffffffffffffffffffffffff1614611380576040517f08c379a00000000000000000000000000000000000000000000000000000000081526004016113779061332c565b60405180910390fd5b600073ffffffffffffffffffffffffffffffffffffffff168273ffffffffffffffffffffffffffffffffffffffff16036113ef576040517f08c379a00000000000000000000000000000000000000000000000000000000081526004016113e6906133be565b60405180910390fd5b6113fc8383836001611cd7565b8273ffffffffffffffffffffffffffffffffffffffff1661141c82610856565b73ffffffffffffffffffffffffffffffffffffffff1614611472576040517f08c379a00000000000000000000000000000000000000000000000000000000081526004016114699061332c565b60405180910390fd5b6004600082815260200190815260200160002060006101000a81549073ffffffffffffffffffffffffffffffffffffffff02191690556001600360008573ffffffffffffffffffffffffffffffffffffffff1673ffffffffffffffffffffffffffffffffffffffff168152602001908152602001600020600082825403925050819055506001600360008473ffffffffffffffffffffffffffffffffffffffff1673ffffffffffffffffffffffffffffffffffffffff16815260200190815260200160002060008282540192505081905550816002600083815260200190815260200160002060006101000a81548173ffffffffffffffffffffffffffffffffffffffff021916908373ffffffffffffffffffffffffffffffffffffffff160217905550808273ffffffffffffffffffffffffffffffffffffffff168473ffffffffffffffffffffffffffffffffffffffff167fddf252ad1be2c89b69c2b068fc378daa952ba7f163c4a11628f55a4df523b3ef60405160405180910390a46115fe8383836001611dfd565b505050565b60606000600161161284611e03565b01905060008167ffffffffffffffff8111156116315761163061279d565b5b6040519080825280601f01601f1916602001820160405280156116635781602001600182028036833780820191505090505b509050600082602001820190505b6001156116c6578080600190039150507f3031323334353637383961626364656600000000000000000000000000000000600a86061a8153600a85816116ba576116b9612c4b565b5b04945060008503611671575b819350505050919050565b6000816040516020016116e491906133de565b6040516020818303038152906040528051906020012060001c9050919050565b60006002600083815260200190815260200160002060009054906101000a900473ffffffffffffffffffffffffffffffffffffffff169050919050565b8173ffffffffffffffffffffffffffffffffffffffff168373ffffffffffffffffffffffffffffffffffffffff16036117af576040517f08c379a00000000000000000000000000000000000000000000000000000000081526004016117a690613441565b60405180910390fd5b80600560008573ffffffffffffffffffffffffffffffffffffffff1673ffffffffffffffffffffffffffffffffffffffff16815260200190815260200160002060008473ffffffffffffffffffffffffffffffffffffffff1673ffffffffffffffffffffffffffffffffffffffff16815260200190815260200160002060006101000a81548160ff0219169083151502179055508173ffffffffffffffffffffffffffffffffffffffff168373ffffffffffffffffffffffffffffffffffffffff167f17307eab39ab6107e8899845ad3d59bd9653f200f220920489ca2b5937696c31836040516118a0919061243f565b60405180910390a3505050565b6118b884848461130a565b6118c484848484611f56565b611903576040517f08c379a00000000000000000000000000000000000000000000000000000000081526004016118fa906134d3565b60405180910390fd5b50505050565b606060405180602001604052806000815250905090565b606061192b82611169565b6000611935611909565b905060008151116119555760405180602001604052806000815250611980565b8061195f84611603565b604051602001611970929190612eb4565b6040516020818303038152906040525b915050919050565b600081600001549050919050565b6060600082519050600081036119be5760405180602001604052806000815250915050611b28565b600060036002836119cf9190613522565b6119d99190613556565b60046119e59190613587565b905060006020826119f69190613522565b67ffffffffffffffff811115611a0f57611a0e61279d565b5b6040519080825280601f01601f191660200182016040528015611a415781602001600182028036833780820191505090505b5090506000604051806060016040528060408152602001613af2604091399050600181016020830160005b86811015611ae55760038101905062ffffff818a015116603f8160121c168401518060081b905060ff603f83600c1c1686015116810190508060081b905060ff603f8360061c1686015116810190508060081b905060ff603f831686015116810190508060e01b90508084526004840193505050611a6c565b506003860660018114611aff5760028114611b0f57611b1a565b613d3d60f01b6002830352611b1a565b603d60f81b60018303525b508484525050819450505050505b919050565b611b478282604051806020016040528060008152506120dd565b5050565b611b5482611c96565b611b93576040517f08c379a0000000000000000000000000000000000000000000000000000000008152600401611b8a9061363b565b60405180910390fd5b80600660008481526020019081526020016000209081611bb391906137f2565b505050565b6001816000016000828254019250508190555050565b611c68838383604051602401611be6939291906138c4565b6040516020818303038152906040527f1c7ec448000000000000000000000000000000000000000000000000000000007bffffffffffffffffffffffffffffffffffffffffffffffffffffffff19166020820180517bffffffffffffffffffffffffffffffffffffffffffffffffffffffff8381831617835250505050611c6d565b505050565b60008151905060006a636f6e736f6c652e6c6f679050602083016000808483855afa5050505050565b60008073ffffffffffffffffffffffffffffffffffffffff16611cb883611704565b73ffffffffffffffffffffffffffffffffffffffff1614159050919050565b6001811115611df757600073ffffffffffffffffffffffffffffffffffffffff168473ffffffffffffffffffffffffffffffffffffffff1614611d6b5780600360008673ffffffffffffffffffffffffffffffffffffffff1673ffffffffffffffffffffffffffffffffffffffff1681526020019081526020016000206000828254611d639190613902565b925050819055505b600073ffffffffffffffffffffffffffffffffffffffff168373ffffffffffffffffffffffffffffffffffffffff1614611df65780600360008573ffffffffffffffffffffffffffffffffffffffff1673ffffffffffffffffffffffffffffffffffffffff1681526020019081526020016000206000828254611dee9190613522565b925050819055505b5b50505050565b50505050565b600080600090507a184f03e93ff9f4daa797ed6e38ed64bf6a1f0100000000000000008310611e61577a184f03e93ff9f4daa797ed6e38ed64bf6a1f0100000000000000008381611e5757611e56612c4b565b5b0492506040810190505b6d04ee2d6d415b85acef81000000008310611e9e576d04ee2d6d415b85acef81000000008381611e9457611e93612c4b565b5b0492506020810190505b662386f26fc100008310611ecd57662386f26fc100008381611ec357611ec2612c4b565b5b0492506010810190505b6305f5e1008310611ef6576305f5e1008381611eec57611eeb612c4b565b5b0492506008810190505b6127108310611f1b576127108381611f1157611f10612c4b565b5b0492506004810190505b60648310611f3e5760648381611f3457611f33612c4b565b5b0492506002810190505b600a8310611f4d576001810190505b80915050919050565b6000611f778473ffffffffffffffffffffffffffffffffffffffff16612138565b156120d0578373ffffffffffffffffffffffffffffffffffffffff1663150b7a02611fa06111b4565b8786866040518563ffffffff1660e01b8152600401611fc2949392919061398b565b6020604051808303816000875af1925050508015611ffe57506040513d601f19601f82011682018060405250810190611ffb91906139ec565b60015b612080573d806000811461202e576040519150601f19603f3d011682016040523d82523d6000602084013e612033565b606091505b506000815103612078576040517f08c379a000000000000000000000000000000000000000000000000000000000815260040161206f906134d3565b60405180910390fd5b805181602001fd5b63150b7a0260e01b7bffffffffffffffffffffffffffffffffffffffffffffffffffffffff1916817bffffffffffffffffffffffffffffffffffffffffffffffffffffffff1916149150506120d5565b600190505b949350505050565b6120e7838361215b565b6120f46000848484611f56565b612133576040517f08c379a000000000000000000000000000000000000000000000000000000000815260040161212a906134d3565b60405180910390fd5b505050565b6000808273ffffffffffffffffffffffffffffffffffffffff163b119050919050565b600073ffffffffffffffffffffffffffffffffffffffff168273ffffffffffffffffffffffffffffffffffffffff16036121ca576040517f08c379a00000000000000000000000000000000000000000000000000000000081526004016121c190613a65565b60405180910390fd5b6121d381611c96565b15612213576040517f08c379a000000000000000000000000000000000000000000000000000000000815260040161220a90613ad1565b60405180910390fd5b612221600083836001611cd7565b61222a81611c96565b1561226a576040517f08c379a000000000000000000000000000000000000000000000000000000000815260040161226190613ad1565b60405180910390fd5b6001600360008473ffffffffffffffffffffffffffffffffffffffff1673ffffffffffffffffffffffffffffffffffffffff16815260200190815260200160002060008282540192505081905550816002600083815260200190815260200160002060006101000a81548173ffffffffffffffffffffffffffffffffffffffff021916908373ffffffffffffffffffffffffffffffffffffffff160217905550808273ffffffffffffffffffffffffffffffffffffffff16600073ffffffffffffffffffffffffffffffffffffffff167fddf252ad1be2c89b69c2b068fc378daa952ba7f163c4a11628f55a4df523b3ef60405160405180910390a4612374600083836001611dfd565b5050565b6040518060200160405280600081525090565b6000604051905090565b600080fd5b600080fd5b60007fffffffff0000000000000000000000000000000000000000000000000000000082169050919050565b6123d48161239f565b81146123df57600080fd5b50565b6000813590506123f1816123cb565b92915050565b60006020828403121561240d5761240c612395565b5b600061241b848285016123e2565b91505092915050565b60008115159050919050565b61243981612424565b82525050565b60006020820190506124546000830184612430565b92915050565b6000819050919050565b61246d8161245a565b82525050565b6020820160008201516124896000850182612464565b50505050565b60006020820190506124a46000830184612473565b92915050565b600081519050919050565b600082825260208201905092915050565b60005b838110156124e45780820151818401526020810190506124c9565b60008484015250505050565b6000601f19601f8301169050919050565b600061250c826124aa565b61251681856124b5565b93506125268185602086016124c6565b61252f816124f0565b840191505092915050565b600060208201905081810360008301526125548184612501565b905092915050565b6125658161245a565b811461257057600080fd5b50565b6000813590506125828161255c565b92915050565b60006020828403121561259e5761259d612395565b5b60006125ac84828501612573565b91505092915050565b600073ffffffffffffffffffffffffffffffffffffffff82169050919050565b60006125e0826125b5565b9050919050565b6125f0816125d5565b82525050565b600060208201905061260b60008301846125e7565b92915050565b61261a816125d5565b811461262557600080fd5b50565b60008135905061263781612611565b92915050565b6000806040838503121561265457612653612395565b5b600061266285828601612628565b925050602061267385828601612573565b9150509250929050565b6126868161245a565b82525050565b60006020820190506126a1600083018461267d565b92915050565b6000806000606084860312156126c0576126bf612395565b5b60006126ce86828701612628565b93505060206126df86828701612628565b92505060406126f086828701612573565b9150509250925092565b6000602082840312156127105761270f612395565b5b600061271e84828501612628565b91505092915050565b61273081612424565b811461273b57600080fd5b50565b60008135905061274d81612727565b92915050565b6000806040838503121561276a57612769612395565b5b600061277885828601612628565b92505060206127898582860161273e565b9150509250929050565b600080fd5b600080fd5b7f4e487b7100000000000000000000000000000000000000000000000000000000600052604160045260246000fd5b6127d5826124f0565b810181811067ffffffffffffffff821117156127f4576127f361279d565b5b80604052505050565b600061280761238b565b905061281382826127cc565b919050565b600067ffffffffffffffff8211156128335761283261279d565b5b61283c826124f0565b9050602081019050919050565b82818337600083830152505050565b600061286b61286684612818565b6127fd565b90508281526020810184848401111561288757612886612798565b5b612892848285612849565b509392505050565b600082601f8301126128af576128ae612793565b5b81356128bf848260208601612858565b91505092915050565b600080600080608085870312156128e2576128e1612395565b5b60006128f087828801612628565b945050602061290187828801612628565b935050604061291287828801612573565b925050606085013567ffffffffffffffff8111156129335761293261239a565b5b61293f8782880161289a565b91505092959194509250565b6000806040838503121561296257612961612395565b5b600061297085828601612628565b925050602061298185828601612628565b9150509250929050565b7f4e487b7100000000000000000000000000000000000000000000000000000000600052602260045260246000fd5b600060028204905060018216806129d257607f821691505b6020821081036129e5576129e461298b565b5b50919050565b7f4552433732313a20617070726f76616c20746f2063757272656e74206f776e6560008201527f7200000000000000000000000000000000000000000000000000000000000000602082015250565b6000612a476021836124b5565b9150612a52826129eb565b604082019050919050565b60006020820190508181036000830152612a7681612a3a565b9050919050565b7f4552433732313a20617070726f76652063616c6c6572206973206e6f7420746f60008201527f6b656e206f776e6572206f7220617070726f76656420666f7220616c6c000000602082015250565b6000612ad9603d836124b5565b9150612ae482612a7d565b604082019050919050565b60006020820190508181036000830152612b0881612acc565b9050919050565b7f4552433732313a2063616c6c6572206973206e6f7420746f6b656e206f776e6560008201527f72206f7220617070726f76656400000000000000000000000000000000000000602082015250565b6000612b6b602d836124b5565b9150612b7682612b0f565b604082019050919050565b60006020820190508181036000830152612b9a81612b5e565b9050919050565b600081905092915050565b7f5052494d454952415f50414c4156524100000000000000000000000000000000600082015250565b6000612be2601083612ba1565b9150612bed82612bac565b601082019050919050565b6000612c03826124aa565b612c0d8185612ba1565b9350612c1d8185602086016124c6565b80840191505092915050565b6000612c3482612bd5565b9150612c408284612bf8565b915081905092915050565b7f4e487b7100000000000000000000000000000000000000000000000000000000600052601260045260246000fd5b6000612c858261245a565b9150612c908361245a565b925082612ca057612c9f612c4b565b5b828206905092915050565b7f4e487b7100000000000000000000000000000000000000000000000000000000600052603260045260246000fd5b7f4552433732313a20696e76616c696420746f6b656e2049440000000000000000600082015250565b6000612d106018836124b5565b9150612d1b82612cda565b602082019050919050565b60006020820190508181036000830152612d3f81612d03565b9050919050565b7f4552433732313a2061646472657373207a65726f206973206e6f74206120766160008201527f6c6964206f776e65720000000000000000000000000000000000000000000000602082015250565b6000612da26029836124b5565b9150612dad82612d46565b604082019050919050565b60006020820190508181036000830152612dd181612d95565b9050919050565b7f534547554e44415f50414c415652410000000000000000000000000000000000600082015250565b6000612e0e600f83612ba1565b9150612e1982612dd8565b600f82019050919050565b6000612e2f82612e01565b9150612e3b8284612bf8565b915081905092915050565b7f54455243454952415f50414c4156524100000000000000000000000000000000600082015250565b6000612e7c601083612ba1565b9150612e8782612e46565b601082019050919050565b6000612e9d82612e6f565b9150612ea98284612bf8565b915081905092915050565b6000612ec08285612bf8565b9150612ecc8284612bf8565b91508190509392505050565b7f4e6f206d6f726520737570706c79000000000000000000000000000000000000600082015250565b6000612f0e600e836124b5565b9150612f1982612ed8565b602082019050919050565b60006020820190508181036000830152612f3d81612f01565b9050919050565b6000612f508286612bf8565b9150612f5c8285612bf8565b9150612f688284612bf8565b9150819050949350505050565b60008190508160005260206000209050919050565b60008154612f97816129ba565b612fa18186612ba1565b94506001821660008114612fbc5760018114612fd157613004565b60ff1983168652811515820286019350613004565b612fda85612f75565b60005b83811015612ffc57815481890152600182019150602081019050612fdd565b838801955050505b50505092915050565b7f3c2f746578743e3c2f7376673e00000000000000000000000000000000000000600082015250565b6000613043600d83612ba1565b915061304e8261300d565b600d82019050919050565b60006130658285612f8a565b91506130718284612bf8565b915061307c82613036565b91508190509392505050565b7f7b226e616d65223a202200000000000000000000000000000000000000000000600082015250565b60006130be600a83612ba1565b91506130c982613088565b600a82019050919050565b7f222c20226465736372697074696f6e223a2022556d6120636f6c6563616f206160008201527f636c616d61646120652066616d6f7361206465204e465473206d61726176696c60208201527f686f736f732e222c2022696d616765223a2022646174613a696d6167652f737660408201527f672b786d6c3b6261736536342c00000000000000000000000000000000000000606082015250565b600061317c606d83612ba1565b9150613187826130d4565b606d82019050919050565b7f227d000000000000000000000000000000000000000000000000000000000000600082015250565b60006131c8600283612ba1565b91506131d382613192565b600282019050919050565b60006131e9826130b1565b91506131f58285612bf8565b91506132008261316f565b915061320c8284612bf8565b9150613217826131bb565b91508190509392505050565b7f646174613a6170706c69636174696f6e2f6a736f6e3b6261736536342c000000600082015250565b6000613259601d83612ba1565b915061326482613223565b601d82019050919050565b600061327a8261324c565b91506132868284612bf8565b915081905092915050565b60006040820190506132a660008301856125e7565b6132b3602083018461267d565b9392505050565b7f4552433732313a207472616e736665722066726f6d20696e636f72726563742060008201527f6f776e6572000000000000000000000000000000000000000000000000000000602082015250565b60006133166025836124b5565b9150613321826132ba565b604082019050919050565b6000602082019050818103600083015261334581613309565b9050919050565b7f4552433732313a207472616e7366657220746f20746865207a65726f2061646460008201527f7265737300000000000000000000000000000000000000000000000000000000602082015250565b60006133a86024836124b5565b91506133b38261334c565b604082019050919050565b600060208201905081810360008301526133d78161339b565b9050919050565b60006133ea8284612bf8565b915081905092915050565b7f4552433732313a20617070726f766520746f2063616c6c657200000000000000600082015250565b600061342b6019836124b5565b9150613436826133f5565b602082019050919050565b6000602082019050818103600083015261345a8161341e565b9050919050565b7f4552433732313a207472616e7366657220746f206e6f6e20455243373231526560008201527f63656976657220696d706c656d656e7465720000000000000000000000000000602082015250565b60006134bd6032836124b5565b91506134c882613461565b604082019050919050565b600060208201905081810360008301526134ec816134b0565b9050919050565b7f4e487b7100000000000000000000000000000000000000000000000000000000600052601160045260246000fd5b600061352d8261245a565b91506135388361245a565b92508282019050808211156135505761354f6134f3565b5b92915050565b60006135618261245a565b915061356c8361245a565b92508261357c5761357b612c4b565b5b828204905092915050565b60006135928261245a565b915061359d8361245a565b92508282026135ab8161245a565b915082820484148315176135c2576135c16134f3565b5b5092915050565b7f45524337323155524953746f726167653a2055524920736574206f66206e6f6e60008201527f6578697374656e7420746f6b656e000000000000000000000000000000000000602082015250565b6000613625602e836124b5565b9150613630826135c9565b604082019050919050565b6000602082019050818103600083015261365481613618565b9050919050565b60006020601f8301049050919050565b600082821b905092915050565b6000600883026136a87fffffffffffffffffffffffffffffffffffffffffffffffffffffffffffffffff8261366b565b6136b2868361366b565b95508019841693508086168417925050509392505050565b6000819050919050565b60006136ef6136ea6136e58461245a565b6136ca565b61245a565b9050919050565b6000819050919050565b613709836136d4565b61371d613715826136f6565b848454613678565b825550505050565b600090565b613732613725565b61373d818484613700565b505050565b5b818110156137615761375660008261372a565b600181019050613743565b5050565b601f8211156137a65761377781612f75565b6137808461365b565b8101602085101561378f578190505b6137a361379b8561365b565b830182613742565b50505b505050565b600082821c905092915050565b60006137c9600019846008026137ab565b1980831691505092915050565b60006137e283836137b8565b9150826002028217905092915050565b6137fb826124aa565b67ffffffffffffffff8111156138145761381361279d565b5b61381e82546129ba565b613829828285613765565b600060209050601f83116001811461385c576000841561384a578287015190505b61385485826137d6565b8655506138bc565b601f19841661386a86612f75565b60005b828110156138925784890151825560018201915060208501945060208101905061386d565b868310156138af57848901516138ab601f8916826137b8565b8355505b6001600288020188555050505b505050505050565b600060608201905081810360008301526138de8186612501565b90506138ed602083018561267d565b6138fa60408301846125e7565b949350505050565b600061390d8261245a565b91506139188361245a565b92508282039050818111156139305761392f6134f3565b5b92915050565b600081519050919050565b600082825260208201905092915050565b600061395d82613936565b6139678185613941565b93506139778185602086016124c6565b613980816124f0565b840191505092915050565b60006080820190506139a060008301876125e7565b6139ad60208301866125e7565b6139ba604083018561267d565b81810360608301526139cc8184613952565b905095945050505050565b6000815190506139e6816123cb565b92915050565b600060208284031215613a0257613a01612395565b5b6000613a10848285016139d7565b91505092915050565b7f4552433732313a206d696e7420746f20746865207a65726f2061646472657373600082015250565b6000613a4f6020836124b5565b9150613a5a82613a19565b602082019050919050565b60006020820190508181036000830152613a7e81613a42565b9050919050565b7f4552433732313a20746f6b656e20616c7265616479206d696e74656400000000600082015250565b6000613abb601c836124b5565b9150613ac682613a85565b602082019050919050565b60006020820190508181036000830152613aea81613aae565b905091905056fe4142434445464748494a4b4c4d4e4f505152535455565758595a6162636465666768696a6b6c6d6e6f707172737475767778797a303132333435363738392b2f556d204e465420636f6d206f20494420257320666f69206d696e7461646f2070617261202573a264697066735822122033a4d2d8b5a3a2dd2e269bc8d5d6b9b0e51ab7c239b35d11cf065278c881e15a64736f6c634300081100333c7376672020786d6c6e733d27687474703a2f2f7777772e77332e6f72672f323030302f7376672720207072657365727665417370656374526174696f3d27784d696e594d696e206d65657427202076696577426f783d273020302033353020333530273e20203c646566733e202020203c6c696e6561724772616469656e742069643d274772616469656e7431273e2020202020203c73746f7020636c6173733d2773746f703127206f66667365743d273025272f3e2020202020203c73746f7020636c6173733d2773746f703227206f66667365743d27353025272f3e2020202020203c73746f7020636c6173733d2773746f703327206f66667365743d2731303025272f3e202020203c2f6c696e6561724772616469656e743e20203c2f646566733e20203c7374796c653e202020202e62617365207b20202020202066696c6c3a20626c75653b202020202020666f6e742d66616d696c793a2073657269663b202020202020666f6e742d73697a653a20323070783b202020202020636f6c6f723a20234646463b202020207d202020202e73746f7031207b2073746f702d636f6c6f723a20677265656e3b207d202020202e73746f7032207b2073746f702d636f6c6f723a2077686974653b2073746f702d6f7061636974793a20303b207d202020202e73746f7033207b2073746f702d636f6c6f723a2079656c6c6f773b207d2020202020203c2f7374796c653e20203c726563742077696474683d273130302527206865696768743d2731303025272066696c6c3d2775726c28234772616469656e74312927202f3e20203c7465787420202020783d273530252720202020793d273530252720202020636c6173733d27626173652720202020646f6d696e616e742d626173656c696e653d276d6964646c652720202020746578742d616e63686f723d276d6964646c652720203e",
  "linkReferences": {},
  "deployedLinkReferences": {}
}